{
    "abi": [
        {
            "type": "function",
            "name": "agentExists",
            "inputs": [
                {
                    "name": "agentId",
                    "type": "uint256",
                    "internalType": "uint256"
                }
            ],
            "outputs": [
                {
                    "name": "exists",
                    "type": "bool",
                    "internalType": "bool"
                }
            ],
            "stateMutability": "view"
        },
        {
            "type": "function",
            "name": "getAgent",
            "inputs": [
                {
                    "name": "agentId",
                    "type": "uint256",
                    "internalType": "uint256"
                }
            ],
            "outputs": [
                {
                    "name": "agentId_",
                    "type": "uint256",
                    "internalType": "uint256"
                },
                {
                    "name": "agentDomain",
                    "type": "string",
                    "internalType": "string"
                },
                {
                    "name": "agentAddress",
                    "type": "address",
                    "internalType": "address"
                }
            ],
            "stateMutability": "view"
        },
        {
            "type": "function",
            "name": "getNextAgentId",
            "inputs": [],
            "outputs": [
                {
                    "name": "nextId",
                    "type": "uint256",
                    "internalType": "uint256"
                }
            ],
            "stateMutability": "view"
        },
        {
            "type": "function",
            "name": "getTotalAgents",
            "inputs": [],
            "outputs": [
                {
                    "name": "count",
                    "type": "uint256",
                    "internalType": "uint256"
                }
            ],
            "stateMutability": "view"
        },
        {
            "type": "function",
            "name": "registerAgent",
            "inputs": [
                {
                    "name": "agentDomain",
                    "type": "string",
                    "internalType": "string"
                },
                {
                    "name": "agentAddress",
                    "type": "address",
                    "internalType": "address"
                }
            ],
            "outputs": [
                {
                    "name": "agentId",
                    "type": "uint256",
                    "internalType": "uint256"
                }
            ],
            "stateMutability": "nonpayable"
        },
        {
            "type": "function",
            "name": "resolveByAddress",
            "inputs": [
                {
                    "name": "agentAddress",
                    "type": "address",
                    "internalType": "address"
                }
            ],
            "outputs": [
                {
                    "name": "agentId",
                    "type": "uint256",
                    "internalType": "uint256"
                },
                {
                    "name": "agentDomain",
                    "type": "string",
                    "internalType": "string"
                },
                {
                    "name": "agentAddress_",
                    "type": "address",
                    "internalType": "address"
                }
            ],
            "stateMutability": "view"
        },
        {
            "type": "function",
            "name": "resolveByDomain",
            "inputs": [
                {
                    "name": "agentDomain",
                    "type": "string",
                    "internalType": "string"
                }
            ],
            "outputs": [
                {
                    "name": "agentId",
                    "type": "uint256",
                    "internalType": "uint256"
                },
                {
                    "name": "agentDomain_",
                    "type": "string",
                    "internalType": "string"
                },
                {
                    "name": "agentAddress",
                    "type": "address",
                    "internalType": "address"
                }
            ],
            "stateMutability": "view"
        },
        {
            "type": "function",
            "name": "updateAgent",
            "inputs": [
                {
                    "name": "agentId",
                    "type": "uint256",
                    "internalType": "uint256"
                },
                {
                    "name": "newAgentDomain",
                    "type": "string",
                    "internalType": "string"
                },
                {
                    "name": "newAgentAddress",
                    "type": "address",
                    "internalType": "address"
                }
            ],
            "outputs": [
                {
                    "name": "success",
                    "type": "bool",
                    "internalType": "bool"
                }
            ],
            "stateMutability": "nonpayable"
        },
        {
            "type": "event",
            "name": "AgentRegistered",
            "inputs": [
                {
                    "name": "agentId",
                    "type": "uint256",
                    "indexed": true,
                    "internalType": "uint256"
                },
                {
                    "name": "agentDomain",
                    "type": "string",
                    "indexed": false,
                    "internalType": "string"
                },
                {
                    "name": "agentAddress",
                    "type": "address",
                    "indexed": false,
                    "internalType": "address"
                }
            ],
            "anonymous": false
        },
        {
            "type": "event",
            "name": "AgentUpdated",
            "inputs": [
                {
                    "name": "agentId",
                    "type": "uint256",
                    "indexed": true,
                    "internalType": "uint256"
                },
                {
                    "name": "newAgentDomain",
                    "type": "string",
                    "indexed": false,
                    "internalType": "string"
                },
                {
                    "name": "newAgentAddress",
                    "type": "address",
                    "indexed": false,
                    "internalType": "address"
                }
            ],
            "anonymous": false
        }
    ],
    "bytecode": {
        "object": "0x608060405260015f553480156012575f5ffd5b50611fea806100205f395ff3fe608060405234801561000f575f5ffd5b5060043610610086575f3560e01c806378ddad121161005957806378ddad121461013c5780639305fb541461016e578063cb9e09731461019e578063de99f157146101bc57610086565b80630c6381071461008a5780632de5aaf7146100bc5780633731a16f146100ee5780633bfbbad71461010c575b5f5ffd5b6100a4600480360381019061009f9190610fd6565b6101ec565b6040516100b393929190611098565b60405180910390f35b6100d660048036038101906100d191906110fe565b6103b6565b6040516100e593929190611098565b60405180910390f35b6100f661055f565b6040516101039190611129565b60405180910390f35b610126600480360381019061012191906111a3565b610573565b604051610133919061122e565b60405180910390f35b61015660048036038101906101519190611247565b610a2a565b60405161016593929190611098565b60405180910390f35b61018860048036038101906101839190611292565b610bd7565b6040516101959190611129565b60405180910390f35b6101a6610f42565b6040516101b39190611129565b60405180910390f35b6101d660048036038101906101d191906110fe565b610f4a565b6040516101e3919061122e565b60405180910390f35b5f60605f60035f8573ffffffffffffffffffffffffffffffffffffffff1673ffffffffffffffffffffffffffffffffffffffff1681526020019081526020015f205492505f8303610272576040517f08c379a00000000000000000000000000000000000000000000000000000000081526004016102699061135f565b60405180910390fd5b5f60015f8581526020019081526020015f206040518060800160405290815f82015481526020016001820180546102a8906113aa565b80601f01602080910402602001604051908101604052809291908181526020018280546102d4906113aa565b801561031f5780601f106102f65761010080835404028352916020019161031f565b820191905f5260205f20905b81548152906001019060200180831161030257829003601f168201915b50505050508152602001600282015f9054906101000a900473ffffffffffffffffffffffffffffffffffffffff1673ffffffffffffffffffffffffffffffffffffffff1673ffffffffffffffffffffffffffffffffffffffff1681526020016002820160149054906101000a900460ff1615151515815250509050805f015181602001518260400151935093509350509193909250565b5f60605f60015f8581526020019081526020015f2060020160149054906101000a900460ff1661041b576040517f08c379a00000000000000000000000000000000000000000000000000000000081526004016104129061144a565b60405180910390fd5b5f60015f8681526020019081526020015f206040518060800160405290815f8201548152602001600182018054610451906113aa565b80601f016020809104026020016040519081016040528092919081815260200182805461047d906113aa565b80156104c85780601f1061049f576101008083540402835291602001916104c8565b820191905f5260205f20905b8154815290600101906020018083116104ab57829003601f168201915b50505050508152602001600282015f9054906101000a900473ffffffffffffffffffffffffffffffffffffffff1673ffffffffffffffffffffffffffffffffffffffff1673ffffffffffffffffffffffffffffffffffffffff1681526020016002820160149054906101000a900460ff1615151515815250509050805f015181602001518260400151935093509350509193909250565b5f60015f5461056e9190611495565b905090565b5f60015f8681526020019081526020015f2060020160149054906101000a900460ff166105d5576040517f08c379a00000000000000000000000000000000000000000000000000000000081526004016105cc9061144a565b60405180910390fd5b60015f8681526020019081526020015f206002015f9054906101000a900473ffffffffffffffffffffffffffffffffffffffff1673ffffffffffffffffffffffffffffffffffffffff163373ffffffffffffffffffffffffffffffffffffffff1614610676576040517f08c379a000000000000000000000000000000000000000000000000000000000815260040161066d90611538565b60405180910390fd5b5f60015f8781526020019081526020015f2090505f5f90505f5f90505f878790501180156106d35750826001016040516106b091906115f2565b604051809103902087876040516106c892919061163a565b604051809103902014155b1561079c575f600288886040516106eb929190611680565b9081526020016040518091039020541461073a576040517f08c379a000000000000000000000000000000000000000000000000000000000815260040161073190611708565b60405180910390fd5b60028360010160405161074d91906117b8565b90815260200160405180910390205f90558686846001019182610771929190611993565b508760028888604051610785929190611680565b908152602001604051809103902081905550600191505b5f73ffffffffffffffffffffffffffffffffffffffff168573ffffffffffffffffffffffffffffffffffffffff16141580156108275750826002015f9054906101000a900473ffffffffffffffffffffffffffffffffffffffff1673ffffffffffffffffffffffffffffffffffffffff168573ffffffffffffffffffffffffffffffffffffffff1614155b15610997575f60035f8773ffffffffffffffffffffffffffffffffffffffff1673ffffffffffffffffffffffffffffffffffffffff1681526020019081526020015f2054146108ab576040517f08c379a00000000000000000000000000000000000000000000000000000000081526004016108a290611ad0565b60405180910390fd5b60035f846002015f9054906101000a900473ffffffffffffffffffffffffffffffffffffffff1673ffffffffffffffffffffffffffffffffffffffff1673ffffffffffffffffffffffffffffffffffffffff1681526020019081526020015f205f905584836002015f6101000a81548173ffffffffffffffffffffffffffffffffffffffff021916908373ffffffffffffffffffffffffffffffffffffffff1602179055508760035f8773ffffffffffffffffffffffffffffffffffffffff1673ffffffffffffffffffffffffffffffffffffffff1681526020019081526020015f2081905550600190505b81806109a05750805b6109df576040517f08c379a00000000000000000000000000000000000000000000000000000000081526004016109d690611b5e565b60405180910390fd5b877f1b37db56c92268433e33fda6783791cb9e5f8ffababd3952ab40716443f1bf89888888604051610a1393929190611ba8565b60405180910390a260019350505050949350505050565b5f60605f60028585604051610a40929190611680565b90815260200160405180910390205492505f8303610a93576040517f08c379a0000000000000000000000000000000000000000000000000000000008152600401610a8a90611c48565b60405180910390fd5b5f60015f8581526020019081526020015f206040518060800160405290815f8201548152602001600182018054610ac9906113aa565b80601f0160208091040260200160405190810160405280929190818152602001828054610af5906113aa565b8015610b405780601f10610b1757610100808354040283529160200191610b40565b820191905f5260205f20905b815481529060010190602001808311610b2357829003601f168201915b50505050508152602001600282015f9054906101000a900473ffffffffffffffffffffffffffffffffffffffff1673ffffffffffffffffffffffffffffffffffffffff1673ffffffffffffffffffffffffffffffffffffffff1681526020016002820160149054906101000a900460ff1615151515815250509050805f015181602001518260400151935093509350509250925092565b5f5f73ffffffffffffffffffffffffffffffffffffffff168273ffffffffffffffffffffffffffffffffffffffff1603610c46576040517f08c379a0000000000000000000000000000000000000000000000000000000008152600401610c3d90611cd6565b60405180910390fd5b5f8484905011610c8b576040517f08c379a0000000000000000000000000000000000000000000000000000000008152600401610c8290611d64565b60405180910390fd5b5f60035f8473ffffffffffffffffffffffffffffffffffffffff1673ffffffffffffffffffffffffffffffffffffffff1681526020019081526020015f205414610d0a576040517f08c379a0000000000000000000000000000000000000000000000000000000008152600401610d0190611df2565b60405180910390fd5b5f60028585604051610d1d929190611680565b90815260200160405180910390205414610d6c576040517f08c379a0000000000000000000000000000000000000000000000000000000008152600401610d6390611e80565b60405180910390fd5b5f5f815480929190610d7d90611e9e565b919050559050604051806080016040528082815260200185858080601f0160208091040260200160405190810160405280939291908181526020018383808284375f81840152601f19601f8201169050808301925050505050505081526020018373ffffffffffffffffffffffffffffffffffffffff1681526020016001151581525060015f8381526020019081526020015f205f820151815f01556020820151816001019081610e2e9190611ee5565b506040820151816002015f6101000a81548173ffffffffffffffffffffffffffffffffffffffff021916908373ffffffffffffffffffffffffffffffffffffffff16021790555060608201518160020160146101000a81548160ff0219169083151502179055509050508060028585604051610eab929190611680565b9081526020016040518091039020819055508060035f8473ffffffffffffffffffffffffffffffffffffffff1673ffffffffffffffffffffffffffffffffffffffff1681526020019081526020015f2081905550807faef1fcdf962a03943b677ae3b92ef1b34c972aeef794ed6e9ba5f599b461883b858585604051610f3393929190611ba8565b60405180910390a29392505050565b5f5f54905090565b5f60015f8381526020019081526020015f2060020160149054906101000a900460ff169050919050565b5f5ffd5b5f5ffd5b5f73ffffffffffffffffffffffffffffffffffffffff82169050919050565b5f610fa582610f7c565b9050919050565b610fb581610f9b565b8114610fbf575f5ffd5b50565b5f81359050610fd081610fac565b92915050565b5f60208284031215610feb57610fea610f74565b5b5f610ff884828501610fc2565b91505092915050565b5f819050919050565b61101381611001565b82525050565b5f81519050919050565b5f82825260208201905092915050565b8281835e5f83830152505050565b5f601f19601f8301169050919050565b5f61105b82611019565b6110658185611023565b9350611075818560208601611033565b61107e81611041565b840191505092915050565b61109281610f9b565b82525050565b5f6060820190506110ab5f83018661100a565b81810360208301526110bd8185611051565b90506110cc6040830184611089565b949350505050565b6110dd81611001565b81146110e7575f5ffd5b50565b5f813590506110f8816110d4565b92915050565b5f6020828403121561111357611112610f74565b5b5f611120848285016110ea565b91505092915050565b5f60208201905061113c5f83018461100a565b92915050565b5f5ffd5b5f5ffd5b5f5ffd5b5f5f83601f84011261116357611162611142565b5b8235905067ffffffffffffffff8111156111805761117f611146565b5b60208301915083600182028301111561119c5761119b61114a565b5b9250929050565b5f5f5f5f606085870312156111bb576111ba610f74565b5b5f6111c8878288016110ea565b945050602085013567ffffffffffffffff8111156111e9576111e8610f78565b5b6111f58782880161114e565b9350935050604061120887828801610fc2565b91505092959194509250565b5f8115159050919050565b61122881611214565b82525050565b5f6020820190506112415f83018461121f565b92915050565b5f5f6020838503121561125d5761125c610f74565b5b5f83013567ffffffffffffffff81111561127a57611279610f78565b5b6112868582860161114e565b92509250509250929050565b5f5f5f604084860312156112a9576112a8610f74565b5b5f84013567ffffffffffffffff8111156112c6576112c5610f78565b5b6112d28682870161114e565b935093505060206112e586828701610fc2565b9150509250925092565b7f4964656e7469747952656769737472793a204167656e74206e6f7420666f756e5f8201527f6420666f72206164647265737300000000000000000000000000000000000000602082015250565b5f611349602d83611023565b9150611354826112ef565b604082019050919050565b5f6020820190508181035f8301526113768161133d565b9050919050565b7f4e487b71000000000000000000000000000000000000000000000000000000005f52602260045260245ffd5b5f60028204905060018216806113c157607f821691505b6020821081036113d4576113d361137d565b5b50919050565b7f4964656e7469747952656769737472793a204167656e7420646f6573206e6f745f8201527f2065786973740000000000000000000000000000000000000000000000000000602082015250565b5f611434602683611023565b915061143f826113da565b604082019050919050565b5f6020820190508181035f83015261146181611428565b9050919050565b7f4e487b71000000000000000000000000000000000000000000000000000000005f52601160045260245ffd5b5f61149f82611001565b91506114aa83611001565b92508282039050818111156114c2576114c1611468565b5b92915050565b7f4964656e7469747952656769737472793a204f6e6c79206167656e742063616e5f8201527f2075706461746500000000000000000000000000000000000000000000000000602082015250565b5f611522602783611023565b915061152d826114c8565b604082019050919050565b5f6020820190508181035f83015261154f81611516565b9050919050565b5f81905092915050565b5f819050815f5260205f209050919050565b5f815461157e816113aa565b6115888186611556565b9450600182165f81146115a257600181146115b7576115e9565b60ff19831686528115158202860193506115e9565b6115c085611560565b5f5b838110156115e1578154818901526001820191506020810190506115c2565b838801955050505b50505092915050565b5f6115fd8284611572565b915081905092915050565b828183375f83830152505050565b5f6116218385611556565b935061162e838584611608565b82840190509392505050565b5f611646828486611616565b91508190509392505050565b5f81905092915050565b5f6116678385611652565b9350611674838584611608565b82840190509392505050565b5f61168c82848661165c565b91508190509392505050565b7f4964656e7469747952656769737472793a20446f6d61696e20616c72656164795f8201527f20696e2075736500000000000000000000000000000000000000000000000000602082015250565b5f6116f2602783611023565b91506116fd82611698565b604082019050919050565b5f6020820190508181035f83015261171f816116e6565b9050919050565b5f819050815f5260205f209050919050565b5f8154611744816113aa565b61174e8186611652565b9450600182165f8114611768576001811461177d576117af565b60ff19831686528115158202860193506117af565b61178685611726565b5f5b838110156117a757815481890152600182019150602081019050611788565b838801955050505b50505092915050565b5f6117c38284611738565b915081905092915050565b5f82905092915050565b7f4e487b71000000000000000000000000000000000000000000000000000000005f52604160045260245ffd5b5f6020601f8301049050919050565b5f82821b905092915050565b5f6008830261184f7fffffffffffffffffffffffffffffffffffffffffffffffffffffffffffffffff82611814565b6118598683611814565b95508019841693508086168417925050509392505050565b5f819050919050565b5f61189461188f61188a84611001565b611871565b611001565b9050919050565b5f819050919050565b6118ad8361187a565b6118c16118b98261189b565b848454611820565b825550505050565b5f5f905090565b6118d86118c9565b6118e38184846118a4565b505050565b5b81811015611906576118fb5f826118d0565b6001810190506118e9565b5050565b601f82111561194b5761191c81611726565b61192584611805565b81016020851015611934578190505b61194861194085611805565b8301826118e8565b50505b505050565b5f82821c905092915050565b5f61196b5f1984600802611950565b1980831691505092915050565b5f611983838361195c565b9150826002028217905092915050565b61199d83836117ce565b67ffffffffffffffff8111156119b6576119b56117d8565b5b6119c082546113aa565b6119cb82828561190a565b5f601f8311600181146119f8575f84156119e6578287013590505b6119f08582611978565b865550611a57565b601f198416611a0686611726565b5f5b82811015611a2d57848901358255600182019150602085019450602081019050611a08565b86831015611a4a5784890135611a46601f89168261195c565b8355505b6001600288020188555050505b50505050505050565b7f4964656e7469747952656769737472793a204164647265737320616c726561645f8201527f7920696e20757365000000000000000000000000000000000000000000000000602082015250565b5f611aba602883611023565b9150611ac582611a60565b604082019050919050565b5f6020820190508181035f830152611ae781611aae565b9050919050565b7f4964656e7469747952656769737472793a204e6f206368616e6765732070726f5f8201527f7669646564000000000000000000000000000000000000000000000000000000602082015250565b5f611b48602583611023565b9150611b5382611aee565b604082019050919050565b5f6020820190508181035f830152611b7581611b3c565b9050919050565b5f611b878385611023565b9350611b94838584611608565b611b9d83611041565b840190509392505050565b5f6040820190508181035f830152611bc1818587611b7c565b9050611bd06020830184611089565b949350505050565b7f4964656e7469747952656769737472793a204167656e74206e6f7420666f756e5f8201527f6420666f7220646f6d61696e0000000000000000000000000000000000000000602082015250565b5f611c32602c83611023565b9150611c3d82611bd8565b604082019050919050565b5f6020820190508181035f830152611c5f81611c26565b9050919050565b7f4964656e7469747952656769737472793a20496e76616c6964206167656e74205f8201527f6164647265737300000000000000000000000000000000000000000000000000602082015250565b5f611cc0602783611023565b9150611ccb82611c66565b604082019050919050565b5f6020820190508181035f830152611ced81611cb4565b9050919050565b7f4964656e7469747952656769737472793a20456d707479206167656e7420646f5f8201527f6d61696e00000000000000000000000000000000000000000000000000000000602082015250565b5f611d4e602483611023565b9150611d5982611cf4565b604082019050919050565b5f6020820190508181035f830152611d7b81611d42565b9050919050565b7f4964656e7469747952656769737472793a204164647265737320616c726561645f8201527f7920726567697374657265640000000000000000000000000000000000000000602082015250565b5f611ddc602c83611023565b9150611de782611d82565b604082019050919050565b5f6020820190508181035f830152611e0981611dd0565b9050919050565b7f4964656e7469747952656769737472793a20446f6d61696e20616c72656164795f8201527f2072656769737465726564000000000000000000000000000000000000000000602082015250565b5f611e6a602b83611023565b9150611e7582611e10565b604082019050919050565b5f6020820190508181035f830152611e9781611e5e565b9050919050565b5f611ea882611001565b91507fffffffffffffffffffffffffffffffffffffffffffffffffffffffffffffffff8203611eda57611ed9611468565b5b600182019050919050565b611eee82611019565b67ffffffffffffffff811115611f0757611f066117d8565b5b611f1182546113aa565b611f1c82828561190a565b5f60209050601f831160018114611f4d575f8415611f3b578287015190505b611f458582611978565b865550611fac565b601f198416611f5b86611726565b5f5b82811015611f8257848901518255600182019150602085019450602081019050611f5d565b86831015611f9f5784890151611f9b601f89168261195c565b8355505b6001600288020188555050505b50505050505056fea26469706673582212209ae07b7ec560b0063e863b632e4cc537927b109db81e12355c712a8036abe1ab64736f6c634300081e0033",
        "linkReferences": {}
    },
    "methodIdentifiers": {
        "agentExists(uint256)": "de99f157",
        "getAgent(uint256)": "2de5aaf7",
        "getNextAgentId()": "cb9e0973",
        "getTotalAgents()": "3731a16f",
        "registerAgent(string,address)": "9305fb54",
        "resolveByAddress(address)": "0c638107",
        "resolveByDomain(string)": "78ddad12",
        "updateAgent(uint256,string,address)": "3bfbbad7"
    },
    "id": 19
}