{
    "abi": [
        {
            "type": "function",
            "name": "authorizeFeedback",
            "inputs": [
                {
                    "name": "agentClientId",
                    "type": "uint256",
                    "internalType": "uint256"
                },
                {
                    "name": "agentServerId",
                    "type": "uint256",
                    "internalType": "uint256"
                }
            ],
            "outputs": [
                {
                    "name": "feedbackAuthId",
                    "type": "bytes32",
                    "internalType": "bytes32"
                }
            ],
            "stateMutability": "nonpayable"
        },
        {
            "type": "function",
            "name": "getClientAuthorizationCount",
            "inputs": [
                {
                    "name": "agentClientId",
                    "type": "uint256",
                    "internalType": "uint256"
                }
            ],
            "outputs": [
                {
                    "name": "count",
                    "type": "uint256",
                    "internalType": "uint256"
                }
            ],
            "stateMutability": "view"
        },
        {
            "type": "function",
            "name": "getClientFeedbackAuthorizations",
            "inputs": [
                {
                    "name": "agentClientId",
                    "type": "uint256",
                    "internalType": "uint256"
                }
            ],
            "outputs": [
                {
                    "name": "feedbackAuthIds",
                    "type": "bytes32[]",
                    "internalType": "bytes32[]"
                }
            ],
            "stateMutability": "view"
        },
        {
            "type": "function",
            "name": "getFeedbackAuthorization",
            "inputs": [
                {
                    "name": "feedbackAuthId",
                    "type": "bytes32",
                    "internalType": "bytes32"
                }
            ],
            "outputs": [
                {
                    "name": "agentClientId",
                    "type": "uint256",
                    "internalType": "uint256"
                },
                {
                    "name": "agentServerId",
                    "type": "uint256",
                    "internalType": "uint256"
                },
                {
                    "name": "isAuthorized",
                    "type": "bool",
                    "internalType": "bool"
                }
            ],
            "stateMutability": "view"
        },
        {
            "type": "function",
            "name": "getFeedbackAuthorizationDetails",
            "inputs": [
                {
                    "name": "feedbackAuthId",
                    "type": "bytes32",
                    "internalType": "bytes32"
                }
            ],
            "outputs": [
                {
                    "name": "agentClientId",
                    "type": "uint256",
                    "internalType": "uint256"
                },
                {
                    "name": "agentServerId",
                    "type": "uint256",
                    "internalType": "uint256"
                },
                {
                    "name": "isAuthorized",
                    "type": "bool",
                    "internalType": "bool"
                },
                {
                    "name": "timestamp",
                    "type": "uint256",
                    "internalType": "uint256"
                }
            ],
            "stateMutability": "view"
        },
        {
            "type": "function",
            "name": "getServerAuthorizationCount",
            "inputs": [
                {
                    "name": "agentServerId",
                    "type": "uint256",
                    "internalType": "uint256"
                }
            ],
            "outputs": [
                {
                    "name": "count",
                    "type": "uint256",
                    "internalType": "uint256"
                }
            ],
            "stateMutability": "view"
        },
        {
            "type": "function",
            "name": "getServerFeedbackAuthorizations",
            "inputs": [
                {
                    "name": "agentServerId",
                    "type": "uint256",
                    "internalType": "uint256"
                }
            ],
            "outputs": [
                {
                    "name": "feedbackAuthIds",
                    "type": "bytes32[]",
                    "internalType": "bytes32[]"
                }
            ],
            "stateMutability": "view"
        },
        {
            "type": "function",
            "name": "getTotalAuthorizations",
            "inputs": [],
            "outputs": [
                {
                    "name": "count",
                    "type": "uint256",
                    "internalType": "uint256"
                }
            ],
            "stateMutability": "view"
        },
        {
            "type": "function",
            "name": "isFeedbackAuthorized",
            "inputs": [
                {
                    "name": "feedbackAuthId",
                    "type": "bytes32",
                    "internalType": "bytes32"
                }
            ],
            "outputs": [
                {
                    "name": "isAuthorized",
                    "type": "bool",
                    "internalType": "bool"
                }
            ],
            "stateMutability": "view"
        },
        {
            "type": "function",
            "name": "revokeFeedbackAuthorization",
            "inputs": [
                {
                    "name": "feedbackAuthId",
                    "type": "bytes32",
                    "internalType": "bytes32"
                }
            ],
            "outputs": [
                {
                    "name": "success",
                    "type": "bool",
                    "internalType": "bool"
                }
            ],
            "stateMutability": "nonpayable"
        },
        {
            "type": "event",
            "name": "FeedbackAuthorized",
            "inputs": [
                {
                    "name": "agentClientId",
                    "type": "uint256",
                    "indexed": true,
                    "internalType": "uint256"
                },
                {
                    "name": "agentServerId",
                    "type": "uint256",
                    "indexed": true,
                    "internalType": "uint256"
                },
                {
                    "name": "feedbackAuthId",
                    "type": "bytes32",
                    "indexed": true,
                    "internalType": "bytes32"
                }
            ],
            "anonymous": false
        }
    ],
    "bytecode": {
        "object": "0x60806040525f6003553480156012575f5ffd5b50610f14806100205f395ff3fe608060405234801561000f575f5ffd5b506004361061009c575f3560e01c8063852d098b11610064578063852d098b1461017e578063b304d9bc146101b1578063c629db6f146101e1578063ca477e0b14610211578063d6004404146102435761009c565b806305ed3621146100a0578063189af9c9146100d057806329d5fff0146100ee5780633a4854fb1461011e5780637af1560e1461014e575b5f5ffd5b6100ba60048036038101906100b59190610808565b610273565b6040516100c791906108f3565b60405180910390f35b6100d86102da565b6040516100e59190610922565b60405180910390f35b6101086004803603810190610103919061093b565b6102e3565b6040516101159190610988565b60405180910390f35b61013860048036038101906101339190610808565b610571565b6040516101459190610922565b60405180910390f35b610168600480360381019061016391906109cb565b61058e565b6040516101759190610a10565b60405180910390f35b610198600480360381019061019391906109cb565b6105b6565b6040516101a89493929190610a29565b60405180910390f35b6101cb60048036038101906101c69190610808565b61063c565b6040516101d89190610922565b60405180910390f35b6101fb60048036038101906101f69190610808565b610659565b60405161020891906108f3565b60405180910390f35b61022b600480360381019061022691906109cb565b6106c0565b60405161023a93929190610a6c565b60405180910390f35b61025d600480360381019061025891906109cb565b61073e565b60405161026a9190610a10565b60405180910390f35b606060015f8381526020019081526020015f208054806020026020016040519081016040528092919081815260200182805480156102ce57602002820191905f5260205f20905b8154815260200190600101908083116102ba575b50505050509050919050565b5f600354905090565b5f5f8303610326576040517f08c379a000000000000000000000000000000000000000000000000000000000815260040161031d90610b21565b60405180910390fd5b5f8203610368576040517f08c379a000000000000000000000000000000000000000000000000000000000815260040161035f90610baf565b60405180910390fd5b8183036103aa576040517f08c379a00000000000000000000000000000000000000000000000000000000081526004016103a190610c3d565b60405180910390fd5b828260035f8154809291906103be90610c88565b9190505542336040516020016103d8959493929190610d64565b6040516020818303038152906040528051906020012090505f5f8281526020019081526020015f206003015f9054906101000a900460ff1615610450576040517f08c379a000000000000000000000000000000000000000000000000000000000815260040161044790610e32565b60405180910390fd5b6040518060a00160405280848152602001838152602001828152602001600115158152602001428152505f5f8381526020019081526020015f205f820151815f015560208201518160010155604082015181600201556060820151816003015f6101000a81548160ff0219169083151502179055506080820151816004015590505060015f8481526020019081526020015f2081908060018154018082558091505060019003905f5260205f20015f909190919091505560025f8381526020019081526020015f2081908060018154018082558091505060019003905f5260205f20015f90919091909150558082847f38143c86a0f641f4c796c2c1613ab3fe6fff3197c7297e1ff45ae66df2a433ef60405160405180910390a492915050565b5f60025f8381526020019081526020015f20805490509050919050565b5f5f5f8381526020019081526020015f206003015f9054906101000a900460ff169050919050565b5f5f5f5f5f5f5f8781526020019081526020015f206040518060a00160405290815f82015481526020016001820154815260200160028201548152602001600382015f9054906101000a900460ff161515151581526020016004820154815250509050805f01518160200151826060015183608001519450945094509450509193509193565b5f60015f8381526020019081526020015f20805490509050919050565b606060025f8381526020019081526020015f208054806020026020016040519081016040528092919081815260200182805480156106b457602002820191905f5260205f20905b8154815260200190600101908083116106a0575b50505050509050919050565b5f5f5f5f5f5f8681526020019081526020015f206040518060a00160405290815f82015481526020016001820154815260200160028201548152602001600382015f9054906101000a900460ff161515151581526020016004820154815250509050805f015181602001518260600151935093509350509193909250565b5f5f5f8381526020019081526020015f206003015f9054906101000a900460ff1661079e576040517f08c379a000000000000000000000000000000000000000000000000000000000815260040161079590610ec0565b60405180910390fd5b5f5f5f8481526020019081526020015f206003015f6101000a81548160ff02191690831515021790555060019050919050565b5f5ffd5b5f819050919050565b6107e7816107d5565b81146107f1575f5ffd5b50565b5f81359050610802816107de565b92915050565b5f6020828403121561081d5761081c6107d1565b5b5f61082a848285016107f4565b91505092915050565b5f81519050919050565b5f82825260208201905092915050565b5f819050602082019050919050565b5f819050919050565b61086e8161085c565b82525050565b5f61087f8383610865565b60208301905092915050565b5f602082019050919050565b5f6108a182610833565b6108ab818561083d565b93506108b68361084d565b805f5b838110156108e65781516108cd8882610874565b97506108d88361088b565b9250506001810190506108b9565b5085935050505092915050565b5f6020820190508181035f83015261090b8184610897565b905092915050565b61091c816107d5565b82525050565b5f6020820190506109355f830184610913565b92915050565b5f5f60408385031215610951576109506107d1565b5b5f61095e858286016107f4565b925050602061096f858286016107f4565b9150509250929050565b6109828161085c565b82525050565b5f60208201905061099b5f830184610979565b92915050565b6109aa8161085c565b81146109b4575f5ffd5b50565b5f813590506109c5816109a1565b92915050565b5f602082840312156109e0576109df6107d1565b5b5f6109ed848285016109b7565b91505092915050565b5f8115159050919050565b610a0a816109f6565b82525050565b5f602082019050610a235f830184610a01565b92915050565b5f608082019050610a3c5f830187610913565b610a496020830186610913565b610a566040830185610a01565b610a636060830184610913565b95945050505050565b5f606082019050610a7f5f830186610913565b610a8c6020830185610913565b610a996040830184610a01565b949350505050565b5f82825260208201905092915050565b7f52657075746174696f6e52656769737472793a20496e76616c696420636c69655f8201527f6e74206167656e74204944000000000000000000000000000000000000000000602082015250565b5f610b0b602b83610aa1565b9150610b1682610ab1565b604082019050919050565b5f6020820190508181035f830152610b3881610aff565b9050919050565b7f52657075746174696f6e52656769737472793a20496e76616c696420736572765f8201527f6572206167656e74204944000000000000000000000000000000000000000000602082015250565b5f610b99602b83610aa1565b9150610ba482610b3f565b604082019050919050565b5f6020820190508181035f830152610bc681610b8d565b9050919050565b7f52657075746174696f6e52656769737472793a20436c69656e7420616e6420735f8201527f65727665722063616e6e6f74206265207468652073616d650000000000000000602082015250565b5f610c27603883610aa1565b9150610c3282610bcd565b604082019050919050565b5f6020820190508181035f830152610c5481610c1b565b9050919050565b7f4e487b71000000000000000000000000000000000000000000000000000000005f52601160045260245ffd5b5f610c92826107d5565b91507fffffffffffffffffffffffffffffffffffffffffffffffffffffffffffffffff8203610cc457610cc3610c5b565b5b600182019050919050565b5f819050919050565b610ce9610ce4826107d5565b610ccf565b82525050565b5f73ffffffffffffffffffffffffffffffffffffffff82169050919050565b5f610d1882610cef565b9050919050565b5f8160601b9050919050565b5f610d3582610d1f565b9050919050565b5f610d4682610d2b565b9050919050565b610d5e610d5982610d0e565b610d3c565b82525050565b5f610d6f8288610cd8565b602082019150610d7f8287610cd8565b602082019150610d8f8286610cd8565b602082019150610d9f8285610cd8565b602082019150610daf8284610d4d565b6014820191508190509695505050505050565b7f52657075746174696f6e52656769737472793a20417574686f72697a6174696f5f8201527f6e20494420636f6c6c6973696f6e000000000000000000000000000000000000602082015250565b5f610e1c602e83610aa1565b9150610e2782610dc2565b604082019050919050565b5f6020820190508181035f830152610e4981610e10565b9050919050565b7f52657075746174696f6e52656769737472793a20417574686f72697a6174696f5f8201527f6e20646f6573206e6f7420657869737400000000000000000000000000000000602082015250565b5f610eaa603083610aa1565b9150610eb582610e50565b604082019050919050565b5f6020820190508181035f830152610ed781610e9e565b905091905056fea264697066735822122037b78fc575a8040b50b23e28e9f5b6e733337cc4e26299d6fcb443af4a8e1cf164736f6c634300081e0033",
        "linkReferences": {}
    },
    "methodIdentifiers": {
        "authorizeFeedback(uint256,uint256)": "29d5fff0",
        "getClientAuthorizationCount(uint256)": "b304d9bc",
        "getClientFeedbackAuthorizations(uint256)": "05ed3621",
        "getFeedbackAuthorization(bytes32)": "ca477e0b",
        "getFeedbackAuthorizationDetails(bytes32)": "852d098b",
        "getServerAuthorizationCount(uint256)": "3a4854fb",
        "getServerFeedbackAuthorizations(uint256)": "c629db6f",
        "getTotalAuthorizations()": "189af9c9",
        "isFeedbackAuthorized(bytes32)": "7af1560e",
        "revokeFeedbackAuthorization(bytes32)": "d6004404"
    },
    "id": 20
}