{
    "abi": [
        {
            "type": "function",
            "name": "getPendingValidations",
            "inputs": [
                {
                    "name": "agentValidatorId",
                    "type": "uint256",
                    "internalType": "uint256"
                }
            ],
            "outputs": [
                {
                    "name": "requestIds",
                    "type": "bytes32[]",
                    "internalType": "bytes32[]"
                }
            ],
            "stateMutability": "view"
        },
        {
            "type": "function",
            "name": "getServerValidations",
            "inputs": [
                {
                    "name": "agentServerId",
                    "type": "uint256",
                    "internalType": "uint256"
                }
            ],
            "outputs": [
                {
                    "name": "requestIds",
                    "type": "bytes32[]",
                    "internalType": "bytes32[]"
                }
            ],
            "stateMutability": "view"
        },
        {
            "type": "function",
            "name": "getTotalRequests",
            "inputs": [],
            "outputs": [
                {
                    "name": "count",
                    "type": "uint256",
                    "internalType": "uint256"
                }
            ],
            "stateMutability": "view"
        },
        {
            "type": "function",
            "name": "getValidationRequest",
            "inputs": [
                {
                    "name": "requestId",
                    "type": "bytes32",
                    "internalType": "bytes32"
                }
            ],
            "outputs": [
                {
                    "name": "agentValidatorId",
                    "type": "uint256",
                    "internalType": "uint256"
                },
                {
                    "name": "agentServerId",
                    "type": "uint256",
                    "internalType": "uint256"
                },
                {
                    "name": "dataHash",
                    "type": "bytes32",
                    "internalType": "bytes32"
                },
                {
                    "name": "isPending",
                    "type": "bool",
                    "internalType": "bool"
                },
                {
                    "name": "response",
                    "type": "uint256",
                    "internalType": "uint256"
                }
            ],
            "stateMutability": "view"
        },
        {
            "type": "function",
            "name": "getValidationRequestDetails",
            "inputs": [
                {
                    "name": "requestId",
                    "type": "bytes32",
                    "internalType": "bytes32"
                }
            ],
            "outputs": [
                {
                    "name": "agentValidatorId",
                    "type": "uint256",
                    "internalType": "uint256"
                },
                {
                    "name": "agentServerId",
                    "type": "uint256",
                    "internalType": "uint256"
                },
                {
                    "name": "dataHash",
                    "type": "bytes32",
                    "internalType": "bytes32"
                },
                {
                    "name": "isPending",
                    "type": "bool",
                    "internalType": "bool"
                },
                {
                    "name": "response",
                    "type": "uint256",
                    "internalType": "uint256"
                },
                {
                    "name": "timestamp",
                    "type": "uint256",
                    "internalType": "uint256"
                },
                {
                    "name": "timeout",
                    "type": "uint256",
                    "internalType": "uint256"
                }
            ],
            "stateMutability": "view"
        },
        {
            "type": "function",
            "name": "getValidationTimeout",
            "inputs": [],
            "outputs": [
                {
                    "name": "timeout",
                    "type": "uint256",
                    "internalType": "uint256"
                }
            ],
            "stateMutability": "view"
        },
        {
            "type": "function",
            "name": "isValidationCompleted",
            "inputs": [
                {
                    "name": "dataHash",
                    "type": "bytes32",
                    "internalType": "bytes32"
                }
            ],
            "outputs": [
                {
                    "name": "completed",
                    "type": "bool",
                    "internalType": "bool"
                }
            ],
            "stateMutability": "view"
        },
        {
            "type": "function",
            "name": "requestValidation",
            "inputs": [
                {
                    "name": "agentValidatorId",
                    "type": "uint256",
                    "internalType": "uint256"
                },
                {
                    "name": "agentServerId",
                    "type": "uint256",
                    "internalType": "uint256"
                },
                {
                    "name": "dataHash",
                    "type": "bytes32",
                    "internalType": "bytes32"
                }
            ],
            "outputs": [
                {
                    "name": "requestId",
                    "type": "bytes32",
                    "internalType": "bytes32"
                }
            ],
            "stateMutability": "nonpayable"
        },
        {
            "type": "function",
            "name": "respondToValidation",
            "inputs": [
                {
                    "name": "dataHash",
                    "type": "bytes32",
                    "internalType": "bytes32"
                },
                {
                    "name": "response",
                    "type": "uint256",
                    "internalType": "uint256"
                }
            ],
            "outputs": [
                {
                    "name": "success",
                    "type": "bool",
                    "internalType": "bool"
                }
            ],
            "stateMutability": "nonpayable"
        },
        {
            "type": "function",
            "name": "setValidationTimeout",
            "inputs": [
                {
                    "name": "newTimeout",
                    "type": "uint256",
                    "internalType": "uint256"
                }
            ],
            "outputs": [],
            "stateMutability": "nonpayable"
        },
        {
            "type": "event",
            "name": "ValidationRequested",
            "inputs": [
                {
                    "name": "agentValidatorId",
                    "type": "uint256",
                    "indexed": true,
                    "internalType": "uint256"
                },
                {
                    "name": "agentServerId",
                    "type": "uint256",
                    "indexed": true,
                    "internalType": "uint256"
                },
                {
                    "name": "dataHash",
                    "type": "bytes32",
                    "indexed": true,
                    "internalType": "bytes32"
                },
                {
                    "name": "requestId",
                    "type": "bytes32",
                    "indexed": false,
                    "internalType": "bytes32"
                }
            ],
            "anonymous": false
        },
        {
            "type": "event",
            "name": "ValidationResponded",
            "inputs": [
                {
                    "name": "agentValidatorId",
                    "type": "uint256",
                    "indexed": true,
                    "internalType": "uint256"
                },
                {
                    "name": "agentServerId",
                    "type": "uint256",
                    "indexed": true,
                    "internalType": "uint256"
                },
                {
                    "name": "dataHash",
                    "type": "bytes32",
                    "indexed": true,
                    "internalType": "bytes32"
                },
                {
                    "name": "response",
                    "type": "uint256",
                    "indexed": false,
                    "internalType": "uint256"
                },
                {
                    "name": "requestId",
                    "type": "bytes32",
                    "indexed": false,
                    "internalType": "bytes32"
                }
            ],
            "anonymous": false
        }
    ],
    "bytecode": {
        "object": "0x60806040525f60045561012c6005553480156018575f5ffd5b50611a4b806100265f395ff3fe608060405234801561000f575f5ffd5b506004361061009c575f3560e01c80639c17b35d116100645780639c17b35d146101705780639f324f90146101a0578063b3683eda146101d0578063d097037a14610200578063f0e22d52146102345761009c565b8063143c0d01146100a05780631d55c78e146100d05780638556558f146100ec5780638a1b6ba91461011c5780639bc81cb414610152575b5f5ffd5b6100ba60048036038101906100b59190610d82565b610252565b6040516100c79190610e6d565b60405180910390f35b6100ea60048036038101906100e59190610d82565b6102b9565b005b61010660048036038101906101019190610eb7565b610305565b6040516101139190610f0f565b60405180910390f35b61013660048036038101906101319190610f28565b61054b565b6040516101499796959493929190610f71565b60405180910390f35b61015a610654565b6040516101679190610fde565b60405180910390f35b61018a60048036038101906101859190610ff7565b61065d565b6040516101979190611047565b60405180910390f35b6101ba60048036038101906101b59190610f28565b61097b565b6040516101c79190610f0f565b60405180910390f35b6101ea60048036038101906101e59190610d82565b6109a1565b6040516101f79190610e6d565b60405180910390f35b61021a60048036038101906102159190610f28565b610b72565b60405161022b959493929190611060565b60405180910390f35b61023c610c69565b6040516102499190610fde565b60405180910390f35b606060025f8381526020019081526020015f208054806020026020016040519081016040528092919081815260200182805480156102ad57602002820191905f5260205f20905b815481526020019060010190808311610299575b50505050509050919050565b5f81116102fb576040517f08c379a00000000000000000000000000000000000000000000000000000000081526004016102f290611131565b60405180910390fd5b8060058190555050565b5f606482111561034a576040517f08c379a0000000000000000000000000000000000000000000000000000000008152600401610341906111bf565b60405180910390fd5b60035f8481526020019081526020015f205f9054906101000a900460ff16156103a8576040517f08c379a000000000000000000000000000000000000000000000000000000000815260040161039f9061124d565b60405180910390fd5b5f6103b284610c72565b90505f5f1b81036103f8576040517f08c379a00000000000000000000000000000000000000000000000000000000081526004016103ef906112db565b60405180910390fd5b5f5f5f8381526020019081526020015f209050806004015f9054906101000a900460ff1661045b576040517f08c379a000000000000000000000000000000000000000000000000000000000815260040161045290611369565b60405180910390fd5b80600701544211156104a2576040517f08c379a0000000000000000000000000000000000000000000000000000000008152600401610499906113f7565b60405180910390fd5b5f816004015f6101000a81548160ff021916908315150217905550838160050181905550600160035f8781526020019081526020015f205f6101000a81548160ff0219169083151502179055506104fc815f015483610c7d565b848160010154825f01547f116eb5541567e52560e1f1a379b75974f5ce8e7cda202bd9a578a37578e2f40a8786604051610537929190611415565b60405180910390a460019250505092915050565b5f5f5f5f5f5f5f5f5f5f8a81526020019081526020015f20604051806101000160405290815f8201548152602001600182015481526020016002820154815260200160038201548152602001600482015f9054906101000a900460ff16151515158152602001600582015481526020016006820154815260200160078201548152505090505f5f1b816060015103610618576040517f08c379a000000000000000000000000000000000000000000000000000000000815260040161060f906114ac565b60405180910390fd5b805f01518160200151826040015183608001518460a001518560c001518660e00151975097509750975097509750975050919395979092949650565b5f600554905090565b5f5f84036106a0576040517f08c379a00000000000000000000000000000000000000000000000000000000081526004016106979061153a565b60405180910390fd5b5f83036106e2576040517f08c379a00000000000000000000000000000000000000000000000000000000081526004016106d9906115c8565b60405180910390fd5b5f5f1b8203610726576040517f08c379a000000000000000000000000000000000000000000000000000000000815260040161071d90611656565b60405180910390fd5b828403610768576040517f08c379a000000000000000000000000000000000000000000000000000000000815260040161075f906116e4565b60405180910390fd5b83838360045f81548092919061077d9061172f565b9190505542336040516020016107989695949392919061182b565b6040516020818303038152906040528051906020012090505f5f8281526020019081526020015f206004015f9054906101000a900460ff1615610810576040517f08c379a00000000000000000000000000000000000000000000000000000000081526004016108079061190a565b60405180910390fd5b6040518061010001604052808581526020018481526020018381526020018281526020016001151581526020015f8152602001428152602001600554426108579190611928565b8152505f5f8381526020019081526020015f205f820151815f01556020820151816001015560408201518160020155606082015181600301556080820151816004015f6101000a81548160ff02191690831515021790555060a0820151816005015560c0820151816006015560e0820151816007015590505060015f8581526020019081526020015f2081908060018154018082558091505060019003905f5260205f20015f909190919091505560025f8481526020019081526020015f2081908060018154018082558091505060019003905f5260205f20015f90919091909150558183857f5099d296a81fe46d6fe35af319d0ee24971d1ebb29ce61a2901baf8a172420c28460405161096c9190611047565b60405180910390a49392505050565b5f60035f8381526020019081526020015f205f9054906101000a900460ff169050919050565b60605f60015f8481526020019081526020015f208054806020026020016040519081016040528092919081815260200182805480156109fd57602002820191905f5260205f20905b8154815260200190600101908083116109e9575b505050505090505f5f90505f5f90505b8251811015610a71575f5f848381518110610a2b57610a2a61195b565b5b602002602001015181526020019081526020015f206004015f9054906101000a900460ff1615610a64578180610a609061172f565b9250505b8080600101915050610a0d565b505f8167ffffffffffffffff811115610a8d57610a8c611988565b5b604051908082528060200260200182016040528015610abb5781602001602082028036833780820191505090505b5090505f5f90505f5f90505b8451811015610b65575f5f868381518110610ae557610ae461195b565b5b602002602001015181526020019081526020015f206004015f9054906101000a900460ff1615610b5857848181518110610b2257610b2161195b565b5b6020026020010151838381518110610b3d57610b3c61195b565b5b6020026020010181815250508180610b549061172f565b9250505b8080600101915050610ac7565b5081945050505050919050565b5f5f5f5f5f5f5f5f8881526020019081526020015f20604051806101000160405290815f8201548152602001600182015481526020016002820154815260200160038201548152602001600482015f9054906101000a900460ff16151515158152602001600582015481526020016006820154815260200160078201548152505090505f5f1b816060015103610c3d576040517f08c379a0000000000000000000000000000000000000000000000000000000008152600401610c34906114ac565b60405180910390fd5b805f01518160200151826040015183608001518460a00151955095509550955095505091939590929450565b5f600454905090565b5f5f5f1b9050919050565b5f60015f8481526020019081526020015f2090505f5f90505b8180549050811015610d455782828281548110610cb657610cb561195b565b5b905f5260205f20015403610d38578160018380549050610cd691906119b5565b81548110610ce757610ce661195b565b5b905f5260205f200154828281548110610d0357610d0261195b565b5b905f5260205f20018190555081805480610d2057610d1f6119e8565b5b600190038181905f5260205f20015f90559055610d45565b8080600101915050610c96565b50505050565b5f5ffd5b5f819050919050565b610d6181610d4f565b8114610d6b575f5ffd5b50565b5f81359050610d7c81610d58565b92915050565b5f60208284031215610d9757610d96610d4b565b5b5f610da484828501610d6e565b91505092915050565b5f81519050919050565b5f82825260208201905092915050565b5f819050602082019050919050565b5f819050919050565b610de881610dd6565b82525050565b5f610df98383610ddf565b60208301905092915050565b5f602082019050919050565b5f610e1b82610dad565b610e258185610db7565b9350610e3083610dc7565b805f5b83811015610e60578151610e478882610dee565b9750610e5283610e05565b925050600181019050610e33565b5085935050505092915050565b5f6020820190508181035f830152610e858184610e11565b905092915050565b610e9681610dd6565b8114610ea0575f5ffd5b50565b5f81359050610eb181610e8d565b92915050565b5f5f60408385031215610ecd57610ecc610d4b565b5b5f610eda85828601610ea3565b9250506020610eeb85828601610d6e565b9150509250929050565b5f8115159050919050565b610f0981610ef5565b82525050565b5f602082019050610f225f830184610f00565b92915050565b5f60208284031215610f3d57610f3c610d4b565b5b5f610f4a84828501610ea3565b91505092915050565b610f5c81610d4f565b82525050565b610f6b81610dd6565b82525050565b5f60e082019050610f845f83018a610f53565b610f916020830189610f53565b610f9e6040830188610f62565b610fab6060830187610f00565b610fb86080830186610f53565b610fc560a0830185610f53565b610fd260c0830184610f53565b98975050505050505050565b5f602082019050610ff15f830184610f53565b92915050565b5f5f5f6060848603121561100e5761100d610d4b565b5b5f61101b86828701610d6e565b935050602061102c86828701610d6e565b925050604061103d86828701610ea3565b9150509250925092565b5f60208201905061105a5f830184610f62565b92915050565b5f60a0820190506110735f830188610f53565b6110806020830187610f53565b61108d6040830186610f62565b61109a6060830185610f00565b6110a76080830184610f53565b9695505050505050565b5f82825260208201905092915050565b7f56616c69646174696f6e52656769737472793a2054696d656f7574206d7573745f8201527f2062652067726561746572207468616e20300000000000000000000000000000602082015250565b5f61111b6032836110b1565b9150611126826110c1565b604082019050919050565b5f6020820190508181035f8301526111488161110f565b9050919050565b7f56616c69646174696f6e52656769737472793a20526573706f6e7365206d75735f8201527f74206265206265747765656e203020616e642031303000000000000000000000602082015250565b5f6111a96036836110b1565b91506111b48261114f565b604082019050919050565b5f6020820190508181035f8301526111d68161119d565b9050919050565b7f56616c69646174696f6e52656769737472793a2056616c69646174696f6e20615f8201527f6c726561647920636f6d706c6574656400000000000000000000000000000000602082015250565b5f6112376030836110b1565b9150611242826111dd565b604082019050919050565b5f6020820190508181035f8301526112648161122b565b9050919050565b7f56616c69646174696f6e52656769737472793a204e6f2070656e64696e6720725f8201527f65717565737420666f756e6420666f7220646174612068617368000000000000602082015250565b5f6112c5603a836110b1565b91506112d08261126b565b604082019050919050565b5f6020820190508181035f8301526112f2816112b9565b9050919050565b7f56616c69646174696f6e52656769737472793a2052657175657374206973206e5f8201527f6f742070656e64696e6700000000000000000000000000000000000000000000602082015250565b5f611353602a836110b1565b915061135e826112f9565b604082019050919050565b5f6020820190508181035f83015261138081611347565b9050919050565b7f56616c69646174696f6e52656769737472793a205265717565737420686173205f8201527f74696d6564206f75740000000000000000000000000000000000000000000000602082015250565b5f6113e16029836110b1565b91506113ec82611387565b604082019050919050565b5f6020820190508181035f83015261140e816113d5565b9050919050565b5f6040820190506114285f830185610f53565b6114356020830184610f62565b9392505050565b7f56616c69646174696f6e52656769737472793a205265717565737420646f65735f8201527f206e6f7420657869737400000000000000000000000000000000000000000000602082015250565b5f611496602a836110b1565b91506114a18261143c565b604082019050919050565b5f6020820190508181035f8301526114c38161148a565b9050919050565b7f56616c69646174696f6e52656769737472793a20496e76616c69642076616c695f8201527f6461746f72206167656e74204944000000000000000000000000000000000000602082015250565b5f611524602e836110b1565b915061152f826114ca565b604082019050919050565b5f6020820190508181035f83015261155181611518565b9050919050565b7f56616c69646174696f6e52656769737472793a20496e76616c696420736572765f8201527f6572206167656e74204944000000000000000000000000000000000000000000602082015250565b5f6115b2602b836110b1565b91506115bd82611558565b604082019050919050565b5f6020820190508181035f8301526115df816115a6565b9050919050565b7f56616c69646174696f6e52656769737472793a20496e76616c696420646174615f8201527f2068617368000000000000000000000000000000000000000000000000000000602082015250565b5f6116406025836110b1565b915061164b826115e6565b604082019050919050565b5f6020820190508181035f83015261166d81611634565b9050919050565b7f56616c69646174696f6e52656769737472793a2056616c696461746f7220616e5f8201527f64207365727665722063616e6e6f74206265207468652073616d650000000000602082015250565b5f6116ce603b836110b1565b91506116d982611674565b604082019050919050565b5f6020820190508181035f8301526116fb816116c2565b9050919050565b7f4e487b71000000000000000000000000000000000000000000000000000000005f52601160045260245ffd5b5f61173982610d4f565b91507fffffffffffffffffffffffffffffffffffffffffffffffffffffffffffffffff820361176b5761176a611702565b5b600182019050919050565b5f819050919050565b61179061178b82610d4f565b611776565b82525050565b5f819050919050565b6117b06117ab82610dd6565b611796565b82525050565b5f73ffffffffffffffffffffffffffffffffffffffff82169050919050565b5f6117df826117b6565b9050919050565b5f8160601b9050919050565b5f6117fc826117e6565b9050919050565b5f61180d826117f2565b9050919050565b611825611820826117d5565b611803565b82525050565b5f611836828961177f565b602082019150611846828861177f565b602082019150611856828761179f565b602082019150611866828661177f565b602082019150611876828561177f565b6020820191506118868284611814565b601482019150819050979650505050505050565b7f56616c69646174696f6e52656769737472793a205265717565737420494420635f8201527f6f6c6c6973696f6e000000000000000000000000000000000000000000000000602082015250565b5f6118f46028836110b1565b91506118ff8261189a565b604082019050919050565b5f6020820190508181035f830152611921816118e8565b9050919050565b5f61193282610d4f565b915061193d83610d4f565b925082820190508082111561195557611954611702565b5b92915050565b7f4e487b71000000000000000000000000000000000000000000000000000000005f52603260045260245ffd5b7f4e487b71000000000000000000000000000000000000000000000000000000005f52604160045260245ffd5b5f6119bf82610d4f565b91506119ca83610d4f565b92508282039050818111156119e2576119e1611702565b5b92915050565b7f4e487b71000000000000000000000000000000000000000000000000000000005f52603160045260245ffdfea2646970667358221220ec59251a5abc1f40263bd232f822a10eaa846ae3a25a96a8dbf7f0378461546f64736f6c634300081e0033",
        "linkReferences": {}
    },
    "methodIdentifiers": {
        "getPendingValidations(uint256)": "b3683eda",
        "getServerValidations(uint256)": "143c0d01",
        "getTotalRequests()": "f0e22d52",
        "getValidationRequest(bytes32)": "d097037a",
        "getValidationRequestDetails(bytes32)": "8a1b6ba9",
        "getValidationTimeout()": "9bc81cb4",
        "isValidationCompleted(bytes32)": "9f324f90",
        "requestValidation(uint256,uint256,bytes32)": "9c17b35d",
        "respondToValidation(bytes32,uint256)": "8556558f",
        "setValidationTimeout(uint256)": "1d55c78e"
    },
    "id": 21
}